:020000040800F2
:1000000000A00020991A0008E11A0008E11A00086F
:10001000E11A0008E11A0008E11A000800000000D7
:10002000000000000000000000000000E11A0008CD
:10003000E11A000800000000E11A0008E11A0008B7
:1000400000000000000000000000000000000000B0
:1000500000000000000000000000000000000000A0
:100060000000000000000000000000000000000090
:100070000000000000000000000000000000000080
:100080000000000000000000000000000000000070
:100090000000000000000000000000000000000060
:1000A0000000000000000000000000000000000050
:1000B0000000000000000000000000000000000040
:1000C0000000000000000000000000000000000030
:1000D0000000000000000000000000000000000020
:1000E0000000000000000000000000000000000010
:1000F0000000000000000000000000000000000000
:1001000000000000000000000000000000000000EF
:1001100000000000000000000000000000000000DF
:1001200000000000000000000000000000000000CF
:1001300000000000000000000000000000000000BF
:1001400000000000000000000000000000000000AF
:10015000000000000000000000000000000000009F
:10016000000000000000000000000000000000008F
:10017000000000000000000000000000000000007F
:08018000000000000000000077
:1001880010B5054C237833B9044B13B10448AFF3C9
:1001980000800123237010BD7800002000000000BB
:1001A800B425000808B5034B1BB103490348AFF356
:1001B800008008BD000000007C000020B425000875
:1001C800F0B5ADF5017D684601230022054640AC37
:1001D800E25443F3060600F8013B5BB2002BB4BFC0
:1001E8001B21002183EA460301324B40B2F5807F90
:1001F800DBB2EDD100F0DAFD3849012300220E46CA
:1002080013F0800F41F8043B43F3060002F10102AA
:1002180014BF1B23002383EA40030A2ADBB2EFD171
:1002280000F0CBFD63232E4886F828300122A35C1A
:10023800C3F1FF03E95CCB0943EA4103DEB2C3F330
:10024800C01343EA46035FFA83FCC3F3C01343EACF
:100258004C03DFB2C3F3C01343EA47035BB24B401E
:1002680073408CEA030C87EA0C0787F0630787540E
:100278000132B2F5807FDAD11948002400F5807C7C
:1002880000F5A06700F5106600F5506510F8012B21
:1002980012F0800F42F3060314BF1B21002181EAEC
:1002A80043011304C9B243EA02234B404A4043EADC
:1002B80002634FEA336201344CF8043B47F8042BDD
:1002C800B4F5807F4FEA33424FEA332346F8042BD4
:1002D80045F8043BDAD10DF5017DF0BD940000200E
:1002E800BC000020034B10B50A461B6800210446D9
:1002F800984710BD00000020C02AF8B505460E46F4
:10030800144656D0B2F5807F55D0802A40F0EB8055
:100318000A23764F2B603B6B43B997F8343001338F
:1003280087F83430FFF74CFF01233B63002364094F
:100338006B60314605F1080306EB84048C423CD11E
:100348002B680C2B3ED00E2B75D00A2B2FD12846AC
:10035800674D00F1A0062946426955F8044B8768A5
:10036800C2F307230B447C4093F82830634001EB29
:100378001264103094F8284083EA044351FA82F456
:1003880094F8284083EA0463C2F307440C4494F8C1
:10039800284083EA042350F8044C836063400468CF
:1003A800C36063400361534043618642D4D1002057
:1003B8009BE00C23ADE70E23ABE751F8042B43F881
:1003C800042BBBE74A49284605F1C0040A46C5691B
:1003D80051F8046B8768C5F3072313447E4093F8EC
:1003E8002830734002EB1566183096F8286083EAC7
:1003F800064352FA85F696F8286083EA0663C5F341
:100408000746164496F8286083EA062350F80C6CD1
:100418008360734050F8086CC360734050F8046CF4
:100428000361734006684361734083616B40C36135
:100438008442CCD1BBE728462D4D00F1E006294681
:10044800446A55F8042B8768C4F307230B447A40A1
:1004580093F828308769534001EB1462203092F8F2
:10046800282083EA024351FA84F292F8282083EA8A
:100478000263C4F307420A4492F8282083EA02235D
:1004880050F8142C8360534050F8102CC36053402C
:1004980050F80C2C0361534051FA83F2436192F8EF
:1004A80028207A4001EB136797F8287082EA0762E0
:1004B800C3F307270F44C3F307430B4497F8287087
:1004C80093F8283082EA072282EA034350F8042C82
:1004D800836153400268C3615340036263404362CF
:1004E8008642ADD163E76FF01F00F8BD8C11002084
:1004F800940000204FF48C72002101F027BB00000B
:100508002DE9F04F00F1080344680E684D6803EBCD
:10051800840E53F824308C68C9685E40DEF80430D5
:100528005D40DEF808305C40DEF80C305940036866
:100538008DB04FEA63088E4B049605950694079193
:1005480008F1FF380EF1300E00205EE906A700978B
:100558005EF8107C01975EF80C7C02975EE908CB88
:100568005EF8087C0397B8F1000F0EF1200E5EF8D4
:10057800249C00F3FF8018B1CDE90465CDE906415C
:10058800DDE90454DDE90667E9B2380E03EB8101C1
:1005980003EB8000D1F82811D0F8280D4140C4F3AE
:1005A800072003EB80004FEA146ED0F8280541407D
:1005B800C6F3074003EB800003EB8E0ED0F8280942
:1005C800DEF828ED414081EA0C01E0B24FEA156CF3
:1005D80003EB800003EB8C0CD0F82801DCF828CD65
:1005E800089180EA0C00C6F3072C03EB8C0CC4F3CB
:1005F8000744DCF828C580EA0C00C7F3074C03EB76
:100608008C0C03EB8404DCF828C9D4F8284980EA68
:100618000C005FFA86FC03EB8C0C360EDCF828C164
:100628008CEA0E0CC7F3072E03EB8E0EFFB2DEF832
:1006380028E58CEA0E0CC5F3074E03EB8E0E03EB90
:100648008707DEF828E9C5F307258CEA0E0C03EBCB
:10065800860E03EB8505D7F82861DEF8287DD5F8E6
:1006680028557E406E40009D019F74406C4003EB0E
:10067800146580EA0B0095F82860099053FA81F513
:100688008CEA0A0C95F82850CDF828C07D4085EAF8
:100698000665C0F307261E440B9496F8286085EA81
:1006A8000625CCF307461E44C0F3074B96F828608E
:1006B80085EA064803EB1166CDF8108096F8287095
:1006C80053FA80F696F82860029D6E4086EA07661F
:1006D800CCF307271F44039D97F8287086EA07265E
:1006E800C4F307471F4497F8287086EA074603EBC8
:1006F800106704A897F828E0059653FA8CF703EBDF
:100708001C6C97F828709CF828C06F4087EA0E6721
:10071800C4F3072E53FA84F49E4494F828409EF8B4
:1007280028E084EA090989EA0C69C1F3072C9C448A
:1007380087EA0E27C1F3074E9E445B449CF82810B5
:100748009EF828E093F82830C2F8008089EA012949
:1007580087EA0E4789EA034356609760D3602021F1
:1007680006970793FFF7BEFD00200DB0BDE8F08F98
:1007780094000020F7B2080E03EB870703EB800014
:10078800D7F82871D0F8280D784080EA0C0CC5F30A
:10079800072003EB8000370ED0F828058CEA000C00
:1007A800C4F3074003EB800003EB8707D0F8280960
:1007B800D7F8287D8CEA000CE8B203EB800008F13A
:1007C800FF38D0F828017840C4F3072703EB8707E0
:1007D80080EA0B00D7F828757840C1F3074703EB88
:1007E80087074FEA156BD7F828797840E7B203EB0B
:1007F800870703EB8B0BD7F82871DBF828BD87EA4E
:100808000B0BC1F3072703EB8707C9B2240E03EBD1
:10081800810103EB8404D7F82875D4F8284DD1F862
:1008280028118BEA0A0A8AEA070AC6F30747C6F3B9
:100838000726614003EB8606009CC5F30745614027
:1008480003EB8505D6F828456140D5F8284961406D
:100858005FFA8CF50C0E03EB850503EB8404D5F8E1
:100868002861D4F8284D6640019C03EB8707664051
:10087800C0F3072403EB8404D7F82879D4F8284573
:100888008AEA070A6640CAF3074403EB8404C5B240
:10089800D4F8284966404FEA1C6403EB850503EB4E
:1008A8008404D5F82851D4F8284D6540029C654049
:1008B800CAF3072403EB8404070ED4F828456540DF
:1008C800C1F3074403EB840403EB8707D4F82849F2
:1008D800D7F8287D65405FFA8AF403EB84044FEA71
:1008E8001A6AD4F828417C40039F7C40C1F307274B
:1008F80003EB8707C9B2D7F828757C40CCF30747C4
:1009080003EB870703EB8101D7F82879D1F8281181
:1009180003EB8A0ACCF3072C7C4003EB8C0CDAF847
:10092800287DC0F3074003EB80007940DCF8287588
:10093800D0F8280981EA090179404140012004E6FC
:100948007FB5184D1C46AB6B5BB905F13C00FFF752
:10095800D1FD1549802205F13C00FFF7CDFC0123AC
:10096800AB6323466C4603F11002264618685968A3
:10097800254603C5083393422C46F7D10B48324627
:100988003146FFF7BDFD044628B1094801F054F986
:10099800E0B204B070BD72203246102100F09EF81B
:1009A8002046F6E78C11002004000020C811002022
:1009B800CF25000808B500F057F900F095F900F0C8
:1009C800D1F9722000F01AFA522000F017FA4520E7
:1009D80000F014FA532000F011FA452000F00EFA46
:1009E800542000F00BFA202000F008FA202000F034
:1009F80005FA202000F002FA0A2000F0FFF900F0C2
:100A08005BF8044A1021612000F03CF800F0BEF8C1
:100A1800FCE700BF490900080346014400208B4257
:100A280000D1704713F8012B5040082210F0800FB6
:100A38004FEA400018BF80F04D00013AC0B2F5D12E
:100A4800EDE730B50022044601238B4201D3002094
:100A580030BD14F8015F15B99D1A85541A46013343
:100A6800DBB2F2E710B502780024034604701046A2
:100A7800884200D202B910BD1A5C1C541044C0B29E
:100A8800F6E7000038B50B4D2B680F2B04DD61200D
:100A980000F0B4F9012038BDFF2901D96220F7E739
:100AA8000C2404FB035401332071C4E902122B60A7
:100AB8000020F0E7E012002008B5064A0021762061
:100AC800FFF7E0FFBDE80840034A00217720FFF761
:100AD800D9BF00BF3B0B0008590B000870B5C0B068
:100AE8000C46002511468DF8010022460DF1030041
:100AF8008DF802408DF8005001F01AF8A11CC9B217
:100B08000DF10100FFF788FF0DEB0403261D611DA1
:100B1800D870C9B268460DF80650FFF792FF6C46C8
:100B280014F8010B013500F069F9AE42F8DA40B06B
:100B380070BD07B503230DF10702012172208DF85E
:100B48000730FFF7CBFF002003B05DF804FB00007F
:100B580030B50D48017885B000220C24D3B28B4201
:100B680002F1010206DB6A467220FFF7B7FF002098
:100B780005B030BD03F1100504FB03036D441B7978
:100B880005F8103CEAE700BFE01200202DE9F04725
:100B9800C2B0002502AE8DF80750344600F014F9B3
:100BA80006F8010B58B905238DF807300DF1070237
:100BB80001216520FFF792FF42B0BDE8F0870135BB
:100BC800042DEBD129462046FFF74CFF254F6178CD
:100BD8003A68804600230C205FFA83F9914502DBCE
:100BE80007D10123E0E700FB0976013336798E420D
:100BF800F2D1E3780533434502DA0423D4E73546D6
:100C080000F0E2F860550028CDD0E3786E1C04337C
:100C1800B342F4DA00F0D8F8A0550028EDD1C8F1B5
:100C2800010151FA86F1C9B25FFA86FA04EB0800AD
:100C3800FFF718FFAAF10201C9B20DF10900FFF789
:100C4800EBFE635D834201D00223ADE70C2303FB77
:100C58000977E278FD68A17860786B44A8478DF839
:100C68000700A3E7E012002070B596B00024032621
:100C78004FF4A0230CA80125CDE90C63109414941B
:100C880000F0D4F80F23214602A8CDE90235CDE9BA
:100C98000444069400F038FB114B5A6942F40022D0
:100CA8005A615B69CDE9094603F400230D4C0193B1
:100CB800019B07A94FF4C0432046CDE9073500F052
:100CC800C9FB2A4620464FF4005100F087FC2A460B
:100CD8004FF48041204600F081FC16B070BD00BF83
:100CE800001002400008004810B54FF4C06288B0F8
:100CF8000223CDE9032301210323CDE90513164C73
:100D080007230793636943F400336361636903F45A
:100D18000033019303A94FF09040019B00F09AFB28
:100D28000E48DFF83CC04FF46133C0E900C300232C
:100D3800C0E90233036183610C234361A36943F46F
:100D48008043A361A36903F480430293029B00F0EC
:100D580099FD08B010BD00BF00100240A413002088
:100D680000380140104B30B55A6942F400325A61DC
:100D78005B6987B003F400330093009B4FF4805401
:100D88000123CDE901430025032301A94FF0904039
:100D9800CDE9035300F05EFB2A4621464FF0904010
:100DA80000F01CFC07B030BD0010024001224FF4D7
:100DB80080514FF0904000F011BC00224FF4805158
:100DC8004FF0904000F00ABC37B50A4D0A4C41F28A
:100DD800883301220DF10701284600F0D4FD18B927
:100DE8009DF8070003B030BD236A43F0080323626F
:100DF800EDE700BFA41300200038014007B541F219
:100E080088338DF8070001220DF10701024800F030
:100E180064FD03B05DF804FBA4130020024B1868BE
:100E2800421C1A60704700BF1414002003682DE9A3
:100E3800F341D907044611D423689A0700F1868044
:100E480023681E0700F1F48023685D0700F14081E4
:100E5800E269002A40F0CB81002021E09A494B68E2
:100E680003F00C03042B07D04B6803F00C03082B8A
:100E780019D14B68DB0316D54FF4003393FAA3F26C
:100E8800096893FAA3F3B3FA83F303F01F0301226B
:100E980002FA03F30B42CFD06368002BCCD10120B8
:100EA80002B0BDE8F0816268B2F5803F24D10B68DA
:100EB80043F480330B60CB6AA06823F00F0303432D
:100EC800CB624AB3FFF7AAFF4FF400360546012765
:100ED80096FAA6F30A6896FAA6F3B3FA83F303F030
:100EE8001F0307FA03F31342A6D1FFF797FF401B2E
:100EF8006428EDD90320D3E70B6832B923F4803393
:100F08000B600B6823F48023D4E7B2F5A02FF5D14A
:100F180043F480230B60CAE7FFF780FF4FF40036E5
:100F28000546012796FAA6F30A6896FAA6F3B3FAD5
:100F380083F303F01F0307FA03F313423FF47CAF74
:100F4800FFF76CFF401B6428ECD9D3E75E494B6878
:100F580013F00C0F07D04B6803F00C03082B21D1BA
:100F68004B68DF031ED4022393FAA3F2086893FAAE
:100F7800A3F3B3FA83F303F01F03012202FA03F386
:100F8800034202D02369934289D10868F82393FA6F
:100F9800A3F3B3FA83F26369934020F0F802134392
:100FA8000B604DE72269012502B395FAA5F3B3FA60
:100FB80083F303F1845303F584139B0002271D6018
:100FC800FFF72CFF064697FAA7F30A6897FAA7F3E4
:100FD800B3FA83F303F01F0305FA03F31342D4D1E2
:100FE800FFF71CFF801B0228EDD983E795FAA5F3CC
:100FF800B3FA83F303F1845303F584139B000227A8
:101008001A60FFF70BFF064697FAA7F30A6897FAE4
:10101800A7F3B3FA83F303F01F0305FA03F31342AC
:101028003FF40EAFFFF7FAFE801B0228ECD961E708
:10103800A269254D2548012112B391FAA1F3B3FA0B
:1010480083F303449B0002261960FFF7E7FE074677
:1010580096FAA6F396FAA6F396FAA6F36A6A96FAA9
:10106800A6F3B3FA83F303F01F0301FA03F3134261
:101078007FF4EAAEFFF7D2FEC01B0228E8D939E7B1
:1010880091FAA1F3B3FA83F303449B0002261A6092
:10109800FFF7C4FE074696FAA6F396FAA6F396FA61
:1010A800A6F36A6A96FAA6F3B3FA83F303F01F036A
:1010B80001FA03F313423FF4C7AEFFF7AFFEC01BBC
:1010C8000228E8D916E700BF0010024020819010DE
:1010D8008A49CB69D80033D4CB6943F08053CB61BC
:1010E800CB6903F080530193019B0125844E33683B
:1010F800DA0527D5E368012B34D10B6A43F00103E5
:101108000B62FFF78BFE022607464FF0010896FA9E
:10111800A6F396FAA6F3002B61D00A6A96FAA6F30C
:10112800B3FA83F303F01F0308FA03F313424ED014
:10113800002D3FF48DAECB6923F08053CB6187E659
:101148000025D3E7336843F480733360FFF766FE06
:1011580007463368DB05CDD4FFF760FEC01B642863
:10116800F7D9C7E62BBB0B6A23F001030B620B6AA6
:1011780023F004030B62FFF751FE022607464FF0E7
:10118800010896FAA6F396FAA6F363B30A6A96FAE2
:10119800A6F3B3FA83F303F01F0308FA03F3134229
:1011A800C6D0FFF73BFE41F28833C01B9842E8D90E
:1011B800A0E6052B0B6A03D143F004030B629CE7FE
:1011C80023F001030B620B6A23F0040398E7FFF78F
:1011D80025FE41F28833C01B984298D98AE696FAD0
:1011E800A6F34A6A9AE796FAA6F34A6ACFE743490A
:1011F8004B6803F00C03082B3FF451AE022A4FF062
:10120800807354D193FAA3F3B3FA83F303F18453AD
:1012180003F584139B0000221A60FFF7FFFDDFF837
:10122800E48006464FF00077012597FAA7F30A688D
:1012380097FAA7F3B3FA83F303F01F0305FA03F34E
:1012480013422ED1D4E908034A68034322F47412E6
:1012580013434B604FF0807393FAA3F3B3FA83F30D
:1012680003F1845303F584139B00264F1D60FFF799
:10127800D5FD4FF000750446012695FAA5F30A68D6
:1012880095FAA5F3B3FA83F303F01F0306FA03F301
:1012980013427FF4E1ADFFF7C1FD001BB842ECD962
:1012A80028E6FFF7BBFD801B4045BED922E693FA2E
:1012B800A3F3B3FA83F303F1845303F584139B0078
:1012C80000221A60FFF7AAFD0E4F04464FF0007582
:1012D800012695FAA5F30A6895FAA5F3B3FA83F3FC
:1012E80003F01F0306FA03F313423FF4B5ADFFF70B
:1012F80095FD001BB842ECD9FCE500BF0010024088
:1013080000700040400D0300504AF8B5136803F020
:1013180007038B4204461BD32268900724D4D207C4
:101328002AD44A4A136803F007038B427AD8206804
:10133800430700F1828010F0080014D0444A216964
:10134800536823F4605343EAC103536000200AE062
:10135800136823F007030B431360136803F00703B4
:101368008B42D9D00120F8BD3948A568436823F0DD
:10137800F0032B434360D2E76268354D012A27D139
:101388004FF4003393FAA3F0286893FAA3F3B3FA5F
:1013980083F303F01F0302FA03F30342E2D06B68FE
:1013A80023F003031A436A60FFF738FD6368012BD3
:1013B800064641F288371ED16B6803F00C03042BF4
:1013C800AFD0FFF72BFD801BB842F5D90320CAE741
:1013D800022A0CBF4FF00073022393FAA3F02E6881
:1013E80093FAA3F3B3FA83F303F01F03012000FA7F
:1013F80003F33342D2E7022B0FD16B6803F00C03DF
:10140800082B8ED0FFF70AFD801BB842F5D9DDE71F
:10141800FFF704FD801BB842D8D86B6813F00C0F97
:10142800F6D17EE7136823F007030B4313601368B4
:1014380003F007038B4295D179E70549E3684A68C9
:1014480022F4E0621A434A6075E700BF00200240B8
:10145800001002402DE9F74FDFF874815D4C00233E
:101468004FF001090A6832FA03F502D103B0BDE86A
:10147800F08F09FA03FA1AEA020200F09E804D681A
:1014880025F0100EBEF1020F14D14FEAD30C00EB79
:101498008C0C03F0070BDCF820604FEA8B0B0F274E
:1014A80007FA0BF726EA07070E6906FA0BF63E431A
:1014B800CCF82060D0F800B04FEA430C032606FAB7
:1014C8000CF72BEA070BFE4305F0030707FA0CF7A6
:1014D8000EF1FF3E47EA0B07BEF1010F076011D876
:1014E800876806EA070ECF6807FA0CF747EA0E077F
:1014F8008760476827EA0A0AC5F300179F4047EA4A
:101508000A074760C76837408E6806FA0CF63E43FC
:10151800C660EE0051D5D8F8186046F00106C8F844
:101528001860D8F8186023F0030707F1804706F021
:10153800010607F58037019603F0030E019EBE6889
:101548004FEA8E0E4FF00F0C0CFA0EFCB0F1904FD4
:1015580026EA0C0C33D0204EB04232D006F5806615
:10156800B04230D006F58066B0422ED006F58066CF
:10157800B0420CBF0426052606FA0EF646EA0C060B
:10158800BE602668D74315F4803F0CBF3E40164323
:101598002660666815F4003F0CBF3E40164366603F
:1015A800A66815F4801F0CBF3E401643A660E66887
:1015B800AD0254BF3E401643E660013352E70026B1
:1015C800DAE70126D8E70226D6E70326D4E700BFE4
:1015D8000010024000040140000400480AB1816183
:1015E800704781627047000002688168C36930B53E
:1015F800056914682943456924F41644294324F0ED
:101608000C041943214311605168C468056A21F428
:101618004051214351609468816924F4306429431E
:101628002143916062498A4216D101F55841096BFC
:1016380001F003010139022900F2B2805D4CB3F5D3
:10164800004F615C77D1082972D8DFE801F0ACACB3
:101658002471AC717171A40057498A422CD101F5EB
:10166800E631096B01F44031B1F5003F00F090809C
:101678000BD8002900F09480B1F5803F00F09080ED
:10168800B3F5004F54D0012015E0B1F5403FF7D134
:10169800B3F5004F66D141684B0803F1F47303F5C5
:1016A8009043B3FBF1F300209BB223F00F01C3F387
:1016B80042030B43D36030BD40498A4210D101F543
:1016C800E431096B01F44021B1F5002F60D004D852
:1016D800002965D0B1F5802FD0E7B1F5402FD6E7C6
:1016E80037498A4210D101F5E231096B01F4401102
:1016F800B1F5001F4CD004D8002951D0B1F5801F96
:10170800BCE7B1F5401FC2E72E498A42B8D101F5BE
:10171800E031096B01F44001B1F5000F38D004D86D
:1017280000293DD0B1F5800FA8E7B1F5400FAEE72D
:1017380001200023B9E70829A5D801A353F821F00F
:1017480085170008851700086D1700088F16000810
:10175800851700088F1600088F1600088F160008D6
:101768008F17000841684B0803F5740303F51053FD
:10177800B3FBF1F39BB2D36000209CE741684B08B0
:1017880003F5E103F4E741684B0803F50043EFE78D
:10179800B3F5004FF7D141684B0803F5803380E774
:1017A800B3F5004FEAD141684B0803F5610378E7C8
:1017B80000380140CC2500080044004000480040A3
:1017C800004C004000500040F8B5069F04461546FE
:1017D8001E462268D36931EA03030CBF01230023A4
:1017E800AB4201D0002014E07B1CF3D097B92368EA
:1017F8001A6822F4D0721A609A6822F001029A607C
:10180800202384F8693084F86A30002384F868302B
:101818000320F8BDFFF702FB801BB842D9D9E6E7E1
:1018280037B504460021C166FFF7F8FA23681B683C
:101838001A07054617D423681B685B070AD56FF09B
:101848007E43009300222B464FF480012046FFF789
:10185800BBFFA0B92023002084F8693084F8680011
:1018680084F86A300CE06FF07E4300930A46034622
:101878004FF400112046FFF7A7FF0028DBD0032014
:1018880003B030BD10B5044628B390F8693003F0B2
:10189800FF020BB980F868202268242384F8693095
:1018A800136823F0010313602046FFF79DFE01280B
:1018B80011D023685A6822F490425A609A6822F03C
:1018C8002A029A601A6842F0010220461A60BDE8AE
:1018D8001040FFF7A5BF012010BDF7B51E4690F8D0
:1018E8006930202B0D46044611464AD1002D46D0BA
:1018F800002A44D090F86830012B42D0012380F8A8
:1019080068300023C366212380F86930FFF786FA20
:10191800A4F850100746A4F85210B4F8522092B216
:1019280062B900963B4640212046FFF74DFF98B923
:10193800202384F8693084F868000EE0B4F8522057
:101948000096013A92B2A4F852203B460022802128
:101958002046FFF739FF10B1032003B0F0BDA3689C
:101968002268B3F5805F07D123692BB935F8023BAC
:10197800C3F308031385D0E715F8013BFAE7012004
:10198800EBE70220E9E72DE9F3411E4690F86A30BB
:10199800202B0D46044611465CD1002D58D0002A54
:1019A80056D090F86830012B54D0012380F8683065
:1019B80003684FF0FF321A620023C366222380F8BF
:1019C8006A30FFF72BFAA368A4F85810B3F5805FC4
:1019D8008046A4F85A1015D123698BB940F2FF1339
:1019E800A4F85C30B4F85C70B4F85A0080B280B9DE
:1019F800202384F86A3084F8680002B0BDE8F081DA
:101A0800FF23EDE7002BEDD12369002BF8D07F23CE
:101A1800E6E7B4F85A200096013A92B2A4F85A20A0
:101A28004346002220212046FFF7CEFEA0B9A26837
:101A38002368B2F5805F06D1226922B99B8C3B40AE
:101A480025F8023BD0E79B8C3B4005F8013BCBE7F0
:101A58000120D2E70220D0E70320CEE70A4A116826
:101A680008B5034609B90949116010686946034475
:101A78008B4206D900F032F80C2303604FF0FF3098
:101A880008BD1360FCE700BF1C14002030140020C0
:101A9800002103E00B4B5B58435004310A480B4BC1
:101AA80042189A42F6D30A4A02E00023136004322D
:101AB800084B9A42F9D3AFF3008000F015F8FEF70F
:101AC80079FFFEE754260008000000207800002077
:101AD8007800002030140020FEE70000014B186851
:101AE800704700BF1400002070B50D4D0D4C641BED
:101AF800A4100026A64209D10B4D0C4C00F056FD4F
:101B0800641BA4100026A64205D170BD55F8043BFD
:101B180098470136EEE755F8043B98470136F2E757
:101B28004C2600084C2600084C26000850260008C1
:101B38000A44914200F1FF3300D1704710B511F803
:101B4800014B03F8014F9142F9D110BD02440346FD
:101B5800934200D1704703F8011BF9E770B50E46B0
:101B6800054618B183690BB900F044FAAB69AC6853
:101B780013B9284600F03EFA2C4B9C4220D16C68E1
:101B8800636EDB0705D4A389980502D4A06D00F025
:101B9800CFFAA38919071DD52369DBB1013EA368D4
:101BA80016F8011F013BA36039BB002B38DA224627
:101BB8000A21284600F048F8013011D00A2511E022
:101BC8001B4B9C4201D1AC68DAE71A4B9C4208BF18
:101BD800EC68D5E72146284600F088F80028DDD0D3
:101BE8004FF0FF35636EDA0705D4A3899B0502D44D
:101BF800A06D00F09EFA284670BD002B04DAA26999
:101C08009A4206DC0A2904D023685A1C22601970FB
:101C1800C5E72246284600F017F80130BFD1DFE7B4
:101C280023680A255A1C22601D70DBE70C26000871
:101C38002C260008EC250008024B01461868FFF71F
:101C48008DBF00BF14000020F8B50E4614460546A7
:101C580018B183690BB900F0CDF9214B9C422BD107
:101C68006C68A369A360A3891A072FD523696BB38E
:101C780023692068C01A6369F6B28342374604DCD8
:101C88002146284600F022F930BBA368013BA36037
:101C980023685A1C22601E7063690130834204D095
:101CA800A389DB0706D50A2E04D12146284600F071
:101CB8000DF988B93846F8BD0A4B9C4201D1AC6889
:101CC800CFE7094B9C4208BFEC68CAE72146284683
:101CD80000F00CF80028CBD04FF0FF37EAE700BF40
:101CE8000C2600082C260008EC250008324B70B59D
:101CF8001D6806460C4625B1AB6913B9284600F0A5
:101D080079F92E4B9C420FD16C68A389B4F90C2049
:101D180019072CD4DD0611D40923336042F040039F
:101D2800A3814FF0FF303EE0254B9C4201D1AC68C7
:101D3800EBE7244B9C4208BFEC68E6E7580712D54E
:101D4800616B41B104F14403994202D0304600F07E
:101D580057FA00236363A38923F02403A381002394
:101D6800636023692360A38943F00803A38123697F
:101D78004BB9A38903F42073B3F5007F03D0214640
:101D8800304600F0FDF9A089B4F90C2010F00103E9
:101D98000AD00023A36063695B42A361236943B946
:101DA80010F08000BAD170BD810758BF6369A36085
:101DB800F4E70020F7E700BF140000200C26000815
:101DC8002C260008EC2500088A89F8B50546100776
:101DD8000C4657D44B68002B04DC0B6C002B01DC41
:101DE8000020F8BDE66A002EFAD0002312F48052D3
:101DF8002F682B6032D0606DA3895A0705D56368B8
:101E0800C01A636B0BB1236CC01A00230246E66A42
:101E1800216A2846B047431CA38906D129681D2991
:101E28002CD8294ACA40D60728D500226260D9048E
:101E38002269226004D5421C01D12B6803B9606570
:101E4800616B2F600029CBD004F14403994202D082
:101E5800284600F0D5F900206063C2E7216A012313
:101E68002846B047411CC7D12B68002BC4D01D2B76
:101E780001D0162B01D12F60B2E7A38943F04003AC
:101E8800A381AEE70F69002FAAD093070E6808BF99
:101E98004B690F6018BF0023F61B8B60002E9FDD77
:101EA800216AD4F828C033463A462846E047002835
:101EB80006DCA38943F04003A3814FF0FF3090E78D
:101EC8000744361AEAE700BF0100402038B50B691D
:101ED80005460C4613B90025284638BD18B1836954
:101EE8000BB900F087F8144B9C421BD16C68B4F90D
:101EF8000C30002BEFD0626ED00704D4990502D4C1
:101F0800A06D00F015F928462146FFF75DFF636EC6
:101F1800DA070546E0D4A3899B05DDD4A06D00F05F
:101F280008F9D9E7054B9C4201D1AC68DFE7044BBF
:101F38009C4208BFEC68DAE70C2600082C2600084B
:101F4800EC250008002310B50446C0E90033C0E9B9
:101F58000433836081814366C28183611946082204
:101F68005C30FFF7F3FD054B6362054BA362054B3D
:101F7800E362054B2462236310BD00BFE52300081C
:101F8800072400083F24000863240008014900F0E2
:101F9800AFB800BFD51E000870B568224D1E554366
:101FA8000E4605F1740100F095F9044640B1002190
:101FB800C0E900160C30A06005F16802FFF7C6FD05
:101FC800204670BD014800F0B3B800BF21140020BE
:101FD800014800F0AEB800BF21140020014800F00D
:101FE800A7B800BF22140020014800F0A2B800BF23
:101FF8002214002010B50446FFF7F0FFA3691BB1B7
:10200800BDE81040FFF7F0BFC4E912332365134B56
:10201800134A1B68A262A34204BF0123A36120469E
:1020280000F020F86060204600F01CF8A060204610
:1020380000F018F80022E06004216068FFF782FFD2
:10204800A06801220921FFF77DFFE0680222122122
:10205800FFF778FF0123A361D2E700BFE825000856
:10206800951F0008F8B50746FFF7ACFF1E4B1E6822
:10207800B36913B93046FFF7BDFF4836D6E90134D6
:10208800013B03D533680BB33668F7E7B4F90C5056
:10209800D5B9164BE36004F15800656600F047F8BF
:1020A800FFF796FFC4E90155C4E904552560A56109
:1020B8000822294604F15C00FFF748FDC4E90D55E4
:1020C800C4E912552046F8BD6834D9E704213846DA
:1020D800FFF762FF044630600028D5D1FFF778FF8C
:1020E8000C233B60EEE700BFE82500080100FFFF76
:1020F8002DE9F8430646884600F148040027D4E94C
:102108000195B9F1010905D52468002CF7D13846A5
:10211800BDE8F883AB89012B07D9B5F90E30013337
:1021280003D029463046C04707436835E9E770477A
:102138007047704770B50E46B1F90E10002996B079
:1021480014461D4608DAB6F90C3000222A601A0631
:1021580010D44FF480630EE06A4600F0A5F9002819
:10216800F1DB019A02F47042A2F500535A425A4137
:102178002A60EEE740230020236016B070BD0000FF
:102188008B8973B59D0706460C4607D504F14703AE
:10219800236023610123636102B070BD01AB6A460D
:1021A800FFF7C8FF00990546304600F093F848B994
:1021B800B4F90C309A05EFD423F0030343F002037B
:1021C800A381E3E70D4BB362A389206043F080034A
:1021D800A381009B6361019B20615BB1B4F90E1080
:1021E800304600F073F928B1A38923F0030343F0C4
:1021F8000103A381A0890543A581CDE7951F0008A8
:1022080038B50546002941D051F8043C0C1F002B75
:10221800B8BFE41800F07CF91D4A136833B963604D
:1022280014602846BDE8384000F078B9A34208D9C0
:10223800206821188B4201BF19685B680918216062
:10224800EDE71A465B680BB1A342FAD9116850183A
:10225800A0420BD120680144501883421160E0D19C
:1022680018685B68536001441160DAE702D90C23EF
:102278002B60D6E7206821188B4204BF19685B6879
:10228800636004BF091821605460CAE738BD00BF05
:102298002414002070B50E4E0C463168054611B95D
:1022A80000F08CF830602146284600F087F8431C7F
:1022B8000AD0C41C24F00304A04207D0211A2846DF
:1022C80000F07CF8013001D14FF0FF34204670BD9A
:1022D800281400202DE9F041CD1C25F00305083510
:1022E8000C2D38BF0C25002D074601DBA94205D966
:1022F8000C233B6000263046BDE8F0812E4E00F0EE
:1023080007F933681C4634BB29463846FFF7C2FF35
:10231800431C04464DD134682646002E40D123681C
:102328003146384604EB030800F048F880453AD1B6
:10233800216803356D1A25F0030508350C2D38BFC3
:102348000C2529463846FFF7A5FF01302BD0236816
:102358002B4423600EE02268521B1ED40B2A16D988
:102368006119A342256018BF5960636808BF3160CE
:1023780062514B60384604F10B0600F0CFF826F0A6
:102388000706231DF21AB6D09B1BA350B3E7626859
:10239800A3420CBF32605A60ECE723466468B2E798
:1023A80034467668B9E70C233B60384600F0B6F847
:1023B800A1E72560DEE700BF2414002038B5064DEC
:1023C8000023044608462B60FFF748FB431C02D154
:1023D8002B6803B1236038BD2C14002010B50C46BF
:1023E800B1F90E1000F0A0F80028ABBF636DA38907
:1023F8001B1823F48053ACBF6365A38110BD2DE97E
:10240800F0411F468B89DB0505460C46164605D567
:10241800B1F90E100223002200F068F8A389B4F97C
:102428000E1023F48053A38132463B462846BDE86C
:10243800F04100F017B810B50C46B1F90E1000F0D5
:1024480055F8431CA38915BF606523F4805343F4F2
:102458008053A38118BFA38110BDB1F90E1000F0FD
:1024680013B8000038B5074D044608461146002247
:102478002A601A4600F092F8431C02D12B6803B177
:10248800236038BD2C14002038B5064D00230446BF
:1024980008462B6000F05AF8431C02D12B6803B1A0
:1024A800236038BD2C14002038B5074D002304469E
:1024B800084611462B6000F051F8431C02D12B68E6
:1024C80003B1236038BD00BF2C14002038B5064D79
:1024D8000023044608462B6000F048F8431C02D14C
:1024E8002B6803B1236038BD2C14002038B5074D84
:1024F80004460846114600222A601A4600F03EF8B3
:10250800431C02D12B6803B1236038BD2C14002072
:102518000148FFF70DBE00BF201400200148FFF757
:1025280008BE00BF2014002038B5074D04460846F1
:10253800114600222A601A4600F028F8431C02D1EE
:102548002B6803B1236038BD2C140020024B58229D
:102558001A604FF0FF3070472C140020024B5822AD
:102568001A604FF0FF3070472C140020024B58229D
:102578001A600020704700BF2C140020024B58221C
:102588001A604FF0FF3070472C140020024B58227D
:102598001A604FF0FF3070472C140020024B58226D
:1025A8001A604FF0FF3070472C140020F8B500BFB8
:1025B800F8BC08BC9E467047F8B500BFF8BC08BC1C
:0425C8009E46704774
:1025CC000408025B4641494C45445D20454342208A
:1025DC00656E6372797074696F6E2100180000204B
:1025EC0000000000000000000000000000000000DF
:1025FC0000000000000000000000000000000000CF
:10260C0000000000000000000000000000000000BE
:10261C0000000000000000000000000000000000AE
:10262C00000000000000000000000000000000009E
:10263C00000000000000000000000000000000008E
:04264C00AD010008D4
:0426500089010008F4
:10265400551B00085B12A47F2B5571191EC06D7C9D
:1026640002FC607618000020000000000C26000820
:102674002C260008EC2500080000000000000000E3
:102684000000000000000000000000000000000046
:102694000000000000000000000000000000000036
:1026A4000000000000000000000000000000000026
:1026B4000000000000000000000000000000000016
:0826C40000000000000000000E
:0400000508001A993C
:00000001FF
